{
  "contractName": "Database_Search",
  "abi": [
    {
      "constant": true,
      "inputs": [
        {
          "internalType": "uint256",
          "name": "",
          "type": "uint256"
        }
      ],
      "name": "users",
      "outputs": [
        {
          "internalType": "string",
          "name": "username",
          "type": "string"
        },
        {
          "internalType": "string",
          "name": "password",
          "type": "string"
        }
      ],
      "payable": false,
      "stateMutability": "view",
      "type": "function"
    },
    {
      "constant": false,
      "inputs": [
        {
          "internalType": "string",
          "name": "username",
          "type": "string"
        },
        {
          "internalType": "string",
          "name": "password",
          "type": "string"
        }
      ],
      "name": "Register",
      "outputs": [],
      "payable": false,
      "stateMutability": "nonpayable",
      "type": "function"
    },
    {
      "constant": false,
      "inputs": [
        {
          "internalType": "string[]",
          "name": "input",
          "type": "string[]"
        }
      ],
      "name": "Insert_Dummy",
      "outputs": [],
      "payable": false,
      "stateMutability": "nonpayable",
      "type": "function"
    },
    {
      "constant": false,
      "inputs": [
        {
          "internalType": "string",
          "name": "username",
          "type": "string"
        },
        {
          "internalType": "string",
          "name": "password",
          "type": "string"
        },
        {
          "internalType": "string",
          "name": "tablename",
          "type": "string"
        },
        {
          "internalType": "string",
          "name": "Key",
          "type": "string"
        },
        {
          "internalType": "string[]",
          "name": "input",
          "type": "string[]"
        }
      ],
      "name": "Insert",
      "outputs": [],
      "payable": false,
      "stateMutability": "nonpayable",
      "type": "function"
    },
    {
      "constant": true,
      "inputs": [
        {
          "internalType": "string",
          "name": "username",
          "type": "string"
        },
        {
          "internalType": "string",
          "name": "tablename",
          "type": "string"
        },
        {
          "internalType": "string",
          "name": "Enc_keyword",
          "type": "string"
        },
        {
          "internalType": "uint256[]",
          "name": "input",
          "type": "uint256[]"
        }
      ],
      "name": "Search_Keyword",
      "outputs": [
        {
          "internalType": "string",
          "name": "",
          "type": "string"
        },
        {
          "internalType": "string[3]",
          "name": "",
          "type": "string[3]"
        }
      ],
      "payable": false,
      "stateMutability": "view",
      "type": "function"
    }
  ],
  "bytecode": "0x6080604052600060025534801561001557600080fd5b50611771806100256000396000f3fe608060405234801561001057600080fd5b50600436106100575760003560e01c80630d7594641461005c578063365b98b2146100865780637584d9c4146100a7578063a73a3daf146100bc578063d6192e29146100cf575b600080fd5b61006f61006a36600461100a565b6100e2565b60405161007d929190611578565b60405180910390f35b6100996100943660046111ad565b6105aa565b60405161007d92919061159d565b6100ba6100b5366004610f67565b6106f5565b005b6100ba6100ca3660046110c6565b610735565b6100ba6100dd366004610fa3565b6108fa565b60606100ec610c41565b60006100f7876109aa565b90506001876040516101099190611560565b9081526020016040518091039020866040516101259190611560565b908152604051908190036020019020541561058957600061025b61014a876005610a56565b60018a60405161015a9190611560565b9081526020016040518091039020896040516101769190611560565b9081526020016040518091039020600201805480602002602001604051908101604052809291908181526020016000905b828210156102525760008481526020908190208301805460408051601f600260001961010060018716150201909416939093049283018590048502810185019091528181529283018282801561023e5780601f106102135761010080835404028352916020019161023e565b820191906000526020600020905b81548152906001019060200180831161022157829003601f168201915b5050505050815260200190600101906101a7565b50505050610b11565b90506001808960405161026e9190611560565b90815260200160405180910390208860405161028a9190611560565b90815260405190819003602001902060020154038114156102c65760405162461bcd60e51b81526004016102bd90611602565b60405180910390fd5b84516102d0610c41565b60018a6040516102e09190611560565b9081526020016040518091039020896040516102fc9190611560565b9081526020016040518091039020600201836001018154811061031b57fe5b600091825260209182902001805460408051601f60026000196101006001871615020190941693909304928301859004850281018501909152818152928301828280156103a95780601f1061037e576101008083540402835291602001916103a9565b820191906000526020600020905b81548152906001019060200180831161038c57829003601f168201915b5050505050816000600381106103bb57fe5b602002015260005b8281101561049a5760038882815181106103d957fe5b6020026020010151815481106103eb57fe5b600091825260209182902001805460408051601f60026000196101006001871615020190941693909304928301859004850281018501909152818152928301828280156104795780601f1061044e57610100808354040283529160200191610479565b820191906000526020600020905b81548152906001019060200180831161045c57829003601f168201915b505050505082826001016003811061048d57fe5b60200201526001016103c3565b5060018a6040516104ab9190611560565b9081526020016040518091039020896040516104c79190611560565b908152602001604051809103902060020183815481106104e357fe5b60009182526020918290200180546040805160026001841615610100026000190190931692909204601f81018590048502830185019091528082529192849284918301828280156105755780601f1061054a57610100808354040283529160200191610575565b820191906000526020600020905b81548152906001019060200180831161055857829003601f168201915b5050505050915095509550505050506105a1565b60405162461bcd60e51b81526004016102bd90611632565b94509492505050565b600081815481106105b757fe5b60009182526020918290206002918202018054604080516001831615610100026000190190921693909304601f81018590048502820185019093528281529093509183919083018282801561064d5780601f106106225761010080835404028352916020019161064d565b820191906000526020600020905b81548152906001019060200180831161063057829003601f168201915b505050505090806001018054600181600116156101000203166002900480601f0160208091040260200160405190810160405280929190818152602001828054600181600116156101000203166002900480156106eb5780601f106106c0576101008083540402835291602001916106eb565b820191906000526020600020905b8154815290600101906020018083116106ce57829003601f168201915b5050505050905082565b60025461071a57805161070f906003906020840190610c68565b506001600255610732565b60405162461bcd60e51b81526004016102bd90611622565b50565b6000610740866109aa565b9050846040516020016107539190611560565b604051602081830303815290604052805190602001206000828154811061077657fe5b9060005260206000209060020201600101604051602001610797919061156c565b6040516020818303038152906040528051906020012014156108da576001866040516107c39190611560565b9081526020016040518091039020846040516107df9190611560565b908152604051908190036020019020546108bd5760028251816107fe57fe5b061561081c5760405162461bcd60e51b81526004016102bd90611612565b610824610cc5565b600180825260208201859052604080830185905251829190610847908a90611560565b9081526020016040518091039020866040516108639190611560565b9081526020016040518091039020600082015181600001556020820151816001019080519060200190610897929190610ce6565b50604082015180516108b3916002840191602090910190610d60565b50905050506108d5565b60405162461bcd60e51b81526004016102bd906115c2565b6108f2565b60405162461bcd60e51b81526004016102bd906115d2565b505050505050565b600061090583610bad565b90508061098d5760408051808201909152838152602080820184905260008054600181018083559180528351805192949360029092027f290decd9548b62a8d60345a988386fc84ba6bc95484008f6362f93160ef3e563019261096b9284920190610ce6565b5060208281015180516109849260018501920190610ce6565b505050506109a5565b60405162461bcd60e51b81526004016102bd906115f2565b505050565b6000805b600054811015610a3857826040516020016109c99190611560565b60405160208183030381529060405280519060200120600082815481106109ec57fe5b9060005260206000209060020201600001604051602001610a0d919061156c565b604051602081830303815290604052805190602001201415610a30579050610a51565b6001016109ae565b5060405162461bcd60e51b81526004016102bd906115e2565b919050565b606080839050600581511115610af3576060838251036040519080825280601f01601f191660200182016040528015610a96576020820181803883390190505b50905060005b84835103811015610ae957828181518110610ab357fe5b602001015160f81c60f81b828281518110610aca57fe5b60200101906001600160f81b031916908160001a905350600101610a9c565b509150610b0b9050565b60405162461bcd60e51b81526004016102bd90611602565b92915050565b6000805b8251811015610b945783604051602001610b2f9190611560565b60405160208183030381529060405280519060200120838281518110610b5157fe5b6020026020010151604051602001610b699190611560565b604051602081830303815290604052805190602001201415610b8c579050610b0b565b600101610b15565b5060405162461bcd60e51b81526004016102bd90611602565b600080805b600054811015610c3a5783604051602001610bcd9190611560565b6040516020818303038152906040528051906020012060008281548110610bf057fe5b9060005260206000209060020201600001604051602001610c11919061156c565b604051602081830303815290604052805190602001201415610c3257600191505b600101610bb2565b5092915050565b60405180606001604052806003905b6060815260200190600190039081610c505790505090565b828054828255906000526020600020908101928215610cb5579160200282015b82811115610cb55782518051610ca5918491602090910190610ce6565b5091602001919060010190610c88565b50610cc1929150610dad565b5090565b60405180606001604052806000815260200160608152602001606081525090565b828054600181600116156101000203166002900490600052602060002090601f016020900481019282601f10610d2757805160ff1916838001178555610d54565b82800160010185558215610d54579182015b82811115610d54578251825591602001919060010190610d39565b50610cc1929150610dd3565b828054828255906000526020600020908101928215610cb5579160200282015b82811115610cb55782518051610d9d918491602090910190610ce6565b5091602001919060010190610d80565b610dd091905b80821115610cc1576000610dc78282610ded565b50600101610db3565b90565b610dd091905b80821115610cc15760008155600101610dd9565b50805460018160011615610100020316600290046000825580601f10610e135750610732565b601f0160209004906000526020600020908101906107329190610dd3565b600082601f830112610e4257600080fd5b8135610e55610e5082611668565b611642565b81815260209384019390925082018360005b83811015610e935781358601610e7d8882610f0d565b8452506020928301929190910190600101610e67565b5050505092915050565b600082601f830112610eae57600080fd5b8135610ebc610e5082611668565b91508181835260208401935060208101905083856020840282011115610ee157600080fd5b60005b83811015610e935781610ef78882610f5c565b8452506020928301929190910190600101610ee4565b600082601f830112610f1e57600080fd5b8135610f2c610e5082611688565b91508082526020830160208301858383011115610f4857600080fd5b610f538382846116d4565b50505092915050565b8035610b0b8161171a565b600060208284031215610f7957600080fd5b81356001600160401b03811115610f8f57600080fd5b610f9b84828501610e31565b949350505050565b60008060408385031215610fb657600080fd5b82356001600160401b03811115610fcc57600080fd5b610fd885828601610f0d565b92505060208301356001600160401b03811115610ff457600080fd5b61100085828601610f0d565b9150509250929050565b6000806000806080858703121561102057600080fd5b84356001600160401b0381111561103657600080fd5b61104287828801610f0d565b94505060208501356001600160401b0381111561105e57600080fd5b61106a87828801610f0d565b93505060408501356001600160401b0381111561108657600080fd5b61109287828801610f0d565b92505060608501356001600160401b038111156110ae57600080fd5b6110ba87828801610e9d565b91505092959194509250565b600080600080600060a086880312156110de57600080fd5b85356001600160401b038111156110f457600080fd5b61110088828901610f0d565b95505060208601356001600160401b0381111561111c57600080fd5b61112888828901610f0d565b94505060408601356001600160401b0381111561114457600080fd5b61115088828901610f0d565b93505060608601356001600160401b0381111561116c57600080fd5b61117888828901610f0d565b92505060808601356001600160401b0381111561119457600080fd5b6111a088828901610e31565b9150509295509295909350565b6000602082840312156111bf57600080fd5b6000610f9b8484610f5c565b60006111d7838361124c565b9392505050565b60006111e9826116bb565b6111f38185610a51565b93508360208202850161120585610dd0565b8060005b8581101561123f578484038952815161122285826111cb565b945061122d836116c5565b60209a909a0199925050600101611209565b5091979650505050505050565b6000611257826116c1565b61126181856116cb565b93506112718185602086016116e0565b61127a81611710565b9093019392505050565b600061128f826116c1565b6112998185610a51565b93506112a98185602086016116e0565b9290920192915050565b6000815460018116600081146112d057600181146112f357611332565b607f60028304166112e18187610a51565b60ff1984168152955085019250611332565b600282046113018187610a51565b955061130c856116af565b60005b8281101561132b5781548882015260019091019060200161130f565b5050850192505b505092915050565b6000611347602b836116cb565b7f546865207461626c656e616d6520666f7220757365726e616d6520616c72656181526a0323c9032bc34b9ba3990960ad1b602082015260400192915050565b6000611394601e836116cb565b7f2057726f6e672050617373776f726420666f7220757365726e616d6520210000815260200192915050565b60006113cd601e836116cb565b7f5468697320757365726e616d6520646f6573206e6f7420657869737420210000815260200192915050565b6000611406601d836116cb565b7f54686520757365726e616d6520616c7265616479206578697374732120000000815260200192915050565b600061143f6038836116cb565b7f54686520456e635f4b6579776f726420646f6573206e6f74206578697374206981527f6e20757365726e616d652d3e7461626c656e616d652021200000000000000000602082015260400192915050565b600061149e6026836116cb565b7f54686520696e646578207461626c652069732077726f6e672f496e636f6d706c815265032ba329010960d51b602082015260400192915050565b60006114e6601b836116cb565b7f44756d6d792068617320616c7265616479207570646174656421200000000000815260200192915050565b600061151f602c836116cb565b7f546865207461626c656e616d6520666f7220757365726e616d6520646f65732081526b03737ba1032bc34b9ba3990960a51b602082015260400192915050565b60006111d78284611284565b60006111d782846112b3565b60408082528101611589818561124c565b90508181036020830152610f9b81846111de565b604080825281016115ae818561124c565b90508181036020830152610f9b818461124c565b60208082528101610b0b8161133a565b60208082528101610b0b81611387565b60208082528101610b0b816113c0565b60208082528101610b0b816113f9565b60208082528101610b0b81611432565b60208082528101610b0b81611491565b60208082528101610b0b816114d9565b60208082528101610b0b81611512565b6040518181016001600160401b038111828210171561166057600080fd5b604052919050565b60006001600160401b0382111561167e57600080fd5b5060209081020190565b60006001600160401b0382111561169e57600080fd5b506020601f91909101601f19160190565b60009081526020902090565b50600390565b5190565b60200190565b90815260200190565b82818337506000910152565b60005b838110156116fb5781810151838201526020016116e3565b8381111561170a576000848401525b50505050565b601f01601f191690565b61172381610dd0565b811461073257600080fdfea365627a7a72315820639c8a40c6a2a2211dc2e5d9a21b7b780fd6f8e53377e13335c33d0a05d432046c6578706572696d656e74616cf564736f6c63430005100040",
  "source": " pragma solidity ^0.5.0;\r\n     pragma experimental ABIEncoderV2;\r\ncontract Database_Search{\r\n    \r\n     struct user{\r\n        string username;\r\n        string password;\r\n        \r\n    }\r\n        user[] public users;\r\n       mapping(string => mapping(string => Index_details)) details;\r\n       \r\n    struct Index_details{\r\n     uint flag;\r\n     string key;\r\n     string[] Index;\r\n    }\r\n    uint flag=0;\r\n    string[]  dummy;\r\n    \r\n    function Register(string memory username,string memory password) public{\r\n           uint i=findd_id(username);\r\n           if(i==0){\r\n               users.push(user(username,password));\r\n           }\r\n           else{\r\n               revert('The username already exists! ');\r\n           }\r\n                  \r\n    }\r\n\r\n    function Insert_Dummy(string [] memory input) public{\r\n        if(flag==0){\r\n        dummy=input;\r\n        flag=1;\r\n        }\r\n         else{\r\n               revert('Dummy has already updated! ');\r\n          }\r\n    }\r\n    \r\n    function Insert(string memory username,string memory password,string memory tablename,string memory Key,string [] memory input) public{\r\n        uint i=find_id(username);\r\n         if(keccak256(abi.encodePacked(users[i].password))== keccak256(abi.encodePacked(password)))\r\n         {\r\n          if(details[username][tablename].flag==0){\r\n              if(input.length%2!=0)\r\n              {\r\n                  revert('The index table is wrong/Incomplete ! ');\r\n              }\r\n              Index_details memory p;\r\n              p.flag=1;\r\n              p.key=Key;\r\n\r\n            p.Index=input;\r\n              details[username][tablename]=p;\r\n          }   \r\n          else{\r\n               revert('The tablename for username already exists! ');\r\n          }\r\n         }\r\n         else{\r\n             revert(' Wrong Password for username !');\r\n         }\r\n         \r\n    }\r\n    \r\n    function Search_Keyword(string memory username, string memory tablename,string memory Enc_keyword,uint [] memory input)view public returns(string memory,string [3] memory){\r\n         uint i=find_id(username);\r\n          if(details[username][tablename].flag!=0){\r\n             uint j=find_id_in_index(substring(Enc_keyword,5),details[username][tablename].Index);\r\n             if(j==details[username][tablename].Index.length-1){\r\n                  revert('The Enc_Keyword does not exist in username->tablename ! ');\r\n             }\r\n             uint dummy_length=input.length;\r\n             string[3] memory result;\r\n             result[0]=details[username][tablename].Index[j+1];\r\n             for(uint k=0;k<dummy_length;k++)\r\n             {\r\n                 result[k+1]=dummy[input[k]];\r\n             }\r\n             return (details[username][tablename].Index[j],result);\r\n              \r\n          }   \r\n          else{\r\n               revert('The tablename for username does not exists! ');\r\n          }\r\n         \r\n    }\r\n    \r\n    \r\n     function find_id(string memory username)view internal returns(uint){\r\n            for(uint i=0;i<users.length;i++){\r\n                if(keccak256(abi.encodePacked(users[i].username))== keccak256(abi.encodePacked(username)))\r\n                {\r\n                    return i;\r\n                }\r\n            }\r\n            revert('This username does not exist !');\r\n        }\r\n        \r\n    function find_id_in_index(string memory Enc_Keyword,string [] memory str)view internal returns(uint){\r\n            for(uint i=0;i<str.length;i++){\r\n                if(keccak256(abi.encodePacked(str[i]))== keccak256(abi.encodePacked(Enc_Keyword)))\r\n                {\r\n                    return i;\r\n                }\r\n            }\r\n             revert('The Enc_Keyword does not exist in username->tablename ! ');\r\n        }\r\n    \r\n    function findd_id(string memory username)view internal returns(uint){\r\n             uint k=0;\r\n            for(uint i=0;i<users.length;i++){\r\n                if(keccak256(abi.encodePacked(users[i].username))== keccak256(abi.encodePacked(username)))\r\n                {\r\n                     k=1;\r\n                }\r\n            }\r\n            return k;\r\n           \r\n        }\r\n\r\n       function substring(string memory str,uint end_pad_length)view internal returns(string memory) {\r\n    bytes memory strBytes = bytes(str);\r\n    if(strBytes.length>5){\r\n    bytes memory result = new bytes(strBytes.length-end_pad_length);\r\n    for(uint i = 0; i <strBytes.length-end_pad_length; i++) {\r\n        result[i] = strBytes[i];\r\n    }\r\n    return string(result);\r\n       }\r\n       else{\r\n             revert('The Enc_Keyword does not exist in username->tablename ! ');\r\n       }\r\n       }\r\n\r\n}\r\n    \r\n    \r\n    \r\n    \r\n    ",
  "sourcePath": "C:/Users/Robins Singh/Desktop/btp/final_ppt/database_search/Local_Dapp/contracts/Database_Search.sol",
  "compiler": {
    "name": "solc",
    "version": "0.5.16+commit.9c3226ce.Emscripten.clang"
  },
  "schemaVersion": "3.2.3",
  "updatedAt": "2022-05-04T08:13:21.880Z",
  "networkType": "ethereum",
  "devdoc": {
    "methods": {}
  },
  "userdoc": {
    "methods": {}
  }
}